:020000040800F2
:100000002888002031030008E16C000891520008A4
:10001000DD6C0008050F000881AA00080000000040
:100020000000000000000000000000007102000855
:10003000AF19000800000000CD020008AD9C0008C8
:100040004B0300084B0300084B0300084B03000858
:100050004B0300084B030008B11900084B030008CC
:100060004B030008BB190008C51900084B03000822
:10007000D50F00084B0300084B0300084B03000892
:100080004B0300084B0300084B0300084B03000818
:10009000090F00084B0300084B030008CF190008A4
:1000A0004B0300084B0300084B0300084B030008F8
:1000B0008D9D00089D9D00084B0300084B03000820
:1000C0004B0300084B0300084B0300084B030008D8
:1000D0004B030008A1A900084B0300084B030008CC
:1000E0004B0300084B0300084B0300084B030008B8
:1000F0004B0300084B0300084B0300084B030008A8
:100100004B0300084B0300084B0300084B03000897
:100110004B0300084B0300084B0300084B03000887
:100120004B0300084B030008F50F00087518000882
:100130004B0300084B0300084B030008290F00087D
:10014000190F00084B0300084B0300084B0300087D
:10015000851800084B03000895180008B5A9000889
:100160004B0300084B0300084B0300084B03000837
:100170004B0300084B0300084B030008000000007D
:100180004B0300084B03000800F002F800F061F890
:100190000AA090E8000C82448344AAF10107DA45E2
:1001A00001D100F056F8AFF2090EBAE80F0013F0D3
:1001B000010F18BFFB1A43F0010318473C3B010035
:1001C0005C3B01000A444FF0000C10F8013B13F0B7
:1001D000070408BF10F8014B1D1108BF10F8015BA0
:1001E000641E05D010F8016B641E01F8016BF9D193
:1001F00013F0080F1EBF10F8014BAD1C0C1B09D1EA
:100200006D1E58BF01F801CBFAD505E014F8016B5B
:1002100001F8016B6D1EF9D59142D6D370470000ED
:100220000023002400250026103A28BF78C1FBD8FF
:10023000520728BF30C148BF0B607047752900F0D6
:100240002581002070471FB512F089FE1FBD10B533
:1002500010BD00F0B5FB1146FFF7F5FF0EF028FAD0
:1002600000F0D3FB03B4FFF7F2FF03BC0CF095F9E9
:100270002C4B19680868B0E8F04F80F30988BFF389
:100280006F8F4FF0000080F311887047000000006E
:1002900008480068006880F308884FF0000080F389
:1002A000148862B661B6BFF34F8FBFF36F8F00DF64
:1002B00000BF00BF08ED00E0DFF80C00016841F46A
:1002C00070010160704700BF88ED00E0EFF3098026
:1002D000BFF36F8F134B1A681EF0100F08BF20ED8D
:1002E000108A20E9F04F106009B44FF0500080F3FD
:1002F0001188BFF34F8FBFF36F8F10F087FF4FF060
:10030000000080F3118809BC19680868B0E8F04F54
:100310001EF0100F08BFB0EC108A80F30988BFF3FD
:100320006F8F704770000020EFF30580704700006A
:100330000948804709480047FEE7FEE7FEE7FEE779
:10034000FEE7FEE7FEE7FEE7FEE7FEE704480549B5
:10035000054A064B70470000799D00088901000896
:10036000288200202888002028840020288400205B
:10037000704753EA020C00F069802DE9F04B4FF012
:100380000006002B1FBFB3FA83F503FA05F424FA25
:1003900005F65E4012BF1643B2FA82F502FA05F482
:1003A000C5F120051EBF22FA05FC44EA0C042035E5
:1003B00056EA044C4FEA144418BF641C4FF000087E
:1003C0004FF00009904271EB030C39D3002919BF9B
:1003D000B1FA81F701FA07F6B0FA80F700FA07F6EA
:1003E000C7F120071EBF20FA07FC46EA0C0620379B
:1003F000B6FBF4FCA7EB0507103F07F01F0BCBF192
:1004000020060CFA0BFB2CFA06F644BFB346002676
:10041000202FA4BF5E464FF0000B5BEA060C08BF1E
:100420004FF0010B19EB0B09ABFB027C48EB060804
:10043000C01B06FB02CC0BFB03CC71EB0C01C1E72C
:100440000B46024641464846BDE8F08B13B54FF0D7
:1004500000004FF00001AFF30080BDE81C40704782
:100460000FB41CB5084B06AA7B446946009005985A
:1004700000F085FA04460020694600F093FA204611
:100480001CBC5DF814FB0000390500002DE9F041AB
:100490000646002410687529314616A510D0AFF322
:1004A0000080002802DA404213A507E031688A077D
:1004B00001D512A502E0490704D511A5012401E0E8
:1004C000AFF3008000210A2206F1240709E0B0FB07
:1004D000F2FCB0FBF2F302FB1C00303078541846FB
:1004E000491C0028F3D123462A463046BDE8F04196
:1004F00000F0E6B9000000002D0000002B00000015
:10050000200000002DE9F05F894604464FF0000A04
:10051000DFF874B1FB44C0F820A02046E1688847AA
:10052000002874D0252806D0D4E901219047206AFC
:10053000401C2062F1E700265F462046E1688847BC
:100540002028054607DB312D05D2781910F8200C3C
:1005500008B10643F1E7B00701D526F00406C4F858
:100560001CA00027C4F818A02A2D09D028460CF09A
:100570000DF838B304EB8708303DC8F8185019E07F
:1005800059F8041B204604EB87029161E168884713
:10059000012F054618D1E069002820DA26F0200650
:1005A0001DE0D8F8180000EB800005EB4000303863
:1005B000C8F818002046E168884705460BF0E6FFBA
:1005C0000028EED1012F0AD02E2D08D12046E16857
:1005D00088477F1C0546022F46F02006C4DBA06931
:1005E000002803DA404246F00106A061F00701D07E
:1005F00026F010066C2D0BD0682D09D04C2D39D06B
:100600006A2D35D0742D35D07A2D33D016E038E0F0
:10061000E1682F4620468847B842054609D16C2F2D
:1006200026D04FF48060E16806432046884705469F
:1006300004E06C2F1AD04FF4807006430DB3A5F17F
:100640004100192802D8203546F400664A4629465A
:10065000204626604E46FFF7F1FD80B101280BD001
:10066000F61D26F0070000F1080956E74020E4E7F0
:100670008020D8E70020D6E706F104094DE7284698
:1006800052E7206ABDE8F09F2C35010040EA0103E3
:10069000024630B59B0710D14FF0013400E008C28C
:1006A00008C91D1B9D4315EAC41FF8D013F0FF01B4
:1006B00002F8011B0DD01B0AF8E711F8013B002BD3
:1006C00002F8013B05D011F8013B002B02F8013B79
:1006D000F3D130BD10B5431C02E010F8011B71B11D
:1006E0008107FAD14FF0013202C88C1A8C4314EA08
:1006F000C211F9D0C01A0A0603D0C01E10BDC01A1C
:1007000010BD0A0401D0801E10BD0902FCD0401E9D
:1007100010BD032A40F2308010F0030C00F0158069
:1007200011F8013BBCF1020F624498BF11F801CBF4
:1007300000F8013B38BF11F8013BA2F1040298BF59
:1007400000F801CB38BF00F8013B11F0030300F0C3
:100750002580083AC0F0088051F8043B083A51F867
:1007600004CBA0E80810F5E7121D5CBF51F8043B6C
:1007700040F8043BAFF30080D20724BF11F8013BDF
:1007800011F801CB48BF11F8012B24BF00F8013B41
:1007900000F801CB48BF00F8012B704710B5203A94
:1007A000C0F00B80B1E81850203AA0E81850B1E82A
:1007B0001850A0E81850BFF4F5AF5FEA027C24BFE0
:1007C000B1E81850A0E8185044BF18C918C0BDE8D7
:1007D00010405FEA827C24BF51F8043B40F8043BA0
:1007E00008BF7047D20728BF31F8023B48BF11F855
:1007F000012B28BF20F8023B48BF00F8012B7047AF
:1008000002F0FF0343EA032242EA024200F002B888
:100810004FF000020429C0F0128010F0030C00F029
:100820001B80CCF1040CBCF1020F18BF00F8012BA7
:10083000A8BF20F8022BA1EB0C0100F00DB85FEA75
:10084000C17C24BF00F8012B00F8012B48BF00F841
:10085000012B70474FF0000200B5134694469646B0
:10086000203922BFA0E80C50A0E80C50B1F12001C3
:10087000BFF4F7AF090728BFA0E80C5048BF0CC071
:100880005DF804EB890028BF40F8042B08BF7047CF
:1008900048BF20F8022B11F0804F18BF00F8012B41
:1008A0007047704770477047704710B500F080F888
:1008B000006810BD10B5044600F07AF8046010BD61
:1008C0002DE9F0470D4699469246044600F124086A
:1008D0000168880604D5E06921F01001216000E07C
:1008E0000120A84201DD471B00E00027A1697A1919
:1008F00002EB0900081AA0612078C00602D4204645
:10090000AFF30080002608E0D4E901211AF80600C0
:100910009047206A401C761C20624E45F4DB20780C
:10092000C0060AD52046AFF3008006E0D4E90121D5
:1009300030209047206A401C2062381EA7F1010732
:10094000F4DC07E0D4E9012118F805009047206A9B
:10095000401C2062281EA5F10105F3DC2046AFF300
:1009600000802078000602D50220BDE8F087012033
:10097000FBE7000001694A1C02610878704700B576
:100980008FB0CDE901310021059105497944CDE9C8
:10099000031011466846FFF7B5FD0FB000BD00001B
:1009A000E5FFFFFF0A6802F8010B0A6070470000CC
:1009B00000487047C881002000487047C881002067
:1009C0007546FFF7F9FFAE4605006946534620F02D
:1009D0000700854618B020B5FFF7B8FCBDE82040F9
:1009E0004FF000064FF000074FF000084FF0000BEB
:1009F00021F00701AC46ACE8C009ACE8C009ACE89E
:100A0000C009ACE8C0098D46704710B50446AFF385
:100A100000802046BDE81040FFF724BCB7EE000A76
:100A200080ED000A9FED060A80ED010A9FED040AA1
:100A300080ED020A9FED020A80ED030A7047000074
:100A4000000000002DE9F0412DED028B0746B0EECD
:100A5000408A0C4615461E46D6ED024AB0EE644A60
:100A6000D6ED014AF0EE643AD6ED004AB0EE643AB3
:100A7000D5ED024AF0EE642AD5ED014AB0EE642AC3
:100A8000D5ED004AF0EE641AD4ED024AB0EE641AD5
:100A9000D4ED014AF0EE640AD4ED004AB0EE640AE7
:100AA000384605F0C1FCBDEC028BBDE8F0810000CA
:100AB00010B501221021024802F04CF810BD0000D0
:100AC0000000024010B500221021024802F042F856
:100AD00010BD00000000024000B587B0142102A83C
:100AE000FFF7B8FE00BF002001901E48006840F0EC
:100AF00002001C4908600846006800F002000190EE
:100B000000BF00BF00BF002001900846006840F011
:100B1000010008600846006800F00100019000BF75
:100B200000BF01221021104802F014F801221146E2
:100B30000E4802F00FF8102002900120039004905C
:100B40000220059002A9084801F00AFF0120029046
:100B5000039004900220059002A9044801F000FFD0
:100B600007B000BD303802400000024000040240DF
:100B700010B501221146024801F0ECFF10BD000043
:100B80000004024010B500220121024801F0E2FFFA
:100B900010BD00000004024010B543781B021BB2D8
:100BA0000478234300EE103AB8EEC01A1C4BD3ED84
:100BB000001A21EE211A81ED001AC3781B021BB224
:100BC0008478234300EE103AB8EEC01A144BD3EDEC
:100BD000001A21EE211A81ED011A43791B021BB282
:100BE0000479234300EE103AB8EEC01A0C4BD3ED53
:100BF000001A21EE211A81ED021A037A1B04C4792E
:100C000043EA04238479234300EE903AB8EE601A55
:100C1000DFED041A21EE211A82ED001A10BD00004A
:100C20003402002000401C42704710B504462046A4
:100C300010F022F810BD10B5044620460CF0ECF977
:100C400010BD00004278120212B203781A4300EE7F
:100C5000102AF8EEC00A144A92ED001A60EE810ADA
:100C6000C1ED000AC278120212B283781A4300EE74
:100C7000102AF8EEC00A0C4A92ED001A60EE810AC2
:100C8000C1ED010A4279120212B203791A4300EE51
:100C9000102AF8EEC00A044A92ED001A60EE810AAA
:100CA000C1ED020A704700003802002010B5002490
:100CB000FFF712FFFFF7B8FF0BF02AFE10B144F068
:100CC000800402E00BF08AFD04430CF019F810B127
:100CD00044F0400402E00BF099FF0443204610BDAD
:100CE0002DE9FC4105460E46174600200090019074
:100CF000FFF7E8FE922000F0D1F8062269461220A4
:100D000000F0ACF8FFF7D4FE9DF80100000200B23D
:100D10009DF8001040EA010400EE104AB8EEC00A47
:100D20004C48D0ED000A20EE200A86ED000A9DF81E
:100D30000300000200B29DF8021040EA010400EE38
:100D4000104AB8EEC00A4348D0ED000A20EE200A4F
:100D500086ED010A9DF80500000200B29DF804101E
:100D600040EA010400EE104AB8EEC00A3948D0ED5E
:100D7000000A20EE200A86ED020AFFF703FF082290
:100D80006946002000F06AF8FFF7F2FE9DF80000C7
:100D90000F2838D19DF80300000200B29DF8021020
:100DA00040EA010400EE104AB8EEC00A2A48D0ED2D
:100DB000000A20EE200A85ED000A9DF805000002D9
:100DC00000B29DF8041040EA010400EE104AB8EEAB
:100DD000C00A2148D0ED000A20EE200A85ED010A64
:100DE0009DF80700000200B29DF8061040EA0104D9
:100DF00000EE104AB8EEC00A1748D0ED000A20EE07
:100E0000200A85ED020AFFF75DFEA22000F046F8F9
:100E100002226946222000F021F8FFF749FE9DF8E2
:100E20000000C0009DF8011040EA6114B4F5806F25
:100E300002DBA4F5006004B200EE104AF8EEC00A2E
:100E4000B4EE001AB3EE070A00EE810A87ED000A3D
:100E5000BDE8FC81340200203802002070B506464F
:100E60000C46154646F0800000F018F806E05520C4
:100E700000F014F82070641C681EC5B2002DF6D175
:100E800070BD70B504460D4644F0800000F006F8D1
:100E9000552000F003F8287070BD000001B582B045
:100EA0004FF47A70012301AA02A90090024802F0CF
:100EB000A5FF9DF804000EBD4406002010B50246B3
:100EC0001378DB00547843EA6410B0F5806F02DBDE
:100ED000A0F5006318B200EE100AF8EEC00AB4EEF6
:100EE000001AB3EE070A00EE810A81ED000A10BD78
:100EF00070B505460C462846FFF7D0FF2046FFF7A1
:100F0000CDFF70BD00BFFEE710B5024800F07AFFCC
:100F100010BD0000A005002010B5024800F072FFCF
:100F200010BD0000C805002010B5024800F06AFF9F
:100F300010BD0000C805002000B58BB0282101A815
:100F4000FFF788FC00200690019002900790012096
:100F50000890002003900490012009900E200A9030
:100F60000020059001A90D4800F0FCFD0B4801F0A0
:100F700014FA0221094800F035FD0E2006900020E9
:100F8000059001A9064800F0EDFD054801F005FABD
:100F90000221034800F026FD0BB000BDA005002093
:100FA000C8050020002008E00749095C074A1154E1
:100FB0000021054A1154411CC8B20A28F4DB002163
:100FC000034A117070470000B4810020BE810020E8
:100FD0001405002010B5054801F080FA0CF0BAFAAB
:100FE0000446214602480CF0B9FA10BD040B00205B
:100FF000CC08002010B5FE48C06C0068FD4988424E
:1010000076D9FC4854380068F949C96C0968FA4A2D
:10101000914201D1202169E0F549C96C0968F54A7E
:10102000483A914201D1202160E0F149C96C096838
:10103000F14A6032914201D1202157E0EC49C96C5C
:101040000968EC4A1832914201D120214EE0E8496A
:10105000C96C0968E84A1832914201D1C91445E0C7
:10106000E349C96C0968E34A303A914201D1C91495
:101070003CE0DF49C96C0968DF4A7832914201D10E
:10108000C91433E0DA49C96C0968DA4A303291424E
:1010900001D1C9142AE0D649C96C0968D64A303250
:1010A000914202D14FF4001120E0D149C96C096886
:1010B000D04A183A914202D14FF4001116E0CC49BF
:1010C000C96C0968CC4A9032914202D14FF40011A8
:1010D0000CE0C749C96C0968C64A4832914203D13D
:1010E0004FF4001102E003E04FF00061084070E1AE
:1010F000BF48C06C0068C049A831884276D9BD4855
:1011000058380068BA49C96C0968BB4A914201D194
:10111000202169E0B649C96C0968B64A483A91424B
:1011200001D1202160E0B249C96C0968B24A60323D
:10113000914201D1202157E0AD49C96C0968AD4AFF
:101140001832914201D120214EE0A949C96C0968A9
:10115000A94A1832914201D1C91445E0A449C96C89
:101160000968A44A303A914201D1C9143CE0A0492F
:10117000C96C0968A04A7832914201D1C91433E0A0
:101180009B49C96C09689B4A3032914201D1C9140C
:101190002AE09749C96C0968974A3032914202D1D6
:1011A0004FF4001120E09249C96C0968914A183A3D
:1011B000914202D14FF4001116E08D49C96C0968C3
:1011C0008D4A9032914202D14FF400110CE08849CF
:1011D000C96C0968874A4832914203D14FF4001123
:1011E00002E003E04FF000610840F2E08048C06C8C
:1011F000006881494831884276D97F481038406874
:101200007B49C96C09687C4A914201D1202169E07F
:101210007749C96C0968774A483A914201D120213F
:1012200060E07349C96C0968734A6032914201D128
:10123000202157E06E49C96C09686E4A1832914204
:1012400001D120214EE06A49C96C09686A4A183206
:10125000914201D1C91445E06549C96C0968654AE4
:10126000303A914201D1C9143CE06149C96C096826
:10127000614A7832914201D1C91433E05C49C96CAA
:1012800009685C4A3032914201D1C9142AE05849B8
:10129000C96C0968584A3032914202D14FF40011AA
:1012A00020E05349C96C0968524A183A914202D168
:1012B0004FF4001116E04E49C96C09684E4A90324D
:1012C000914202D14FF400110CE04949C96C096800
:1012D000484A4832914203D14FF4001102E003E042
:1012E0004FF00061084074E04348103800684049FE
:1012F000C96C0968404A914201D1202168E03C490B
:10130000C96C09683B4A483A914201D120215FE00B
:101310003749C96C0968384A6032914201D12021AD
:1013200056E03349C96C0968324A1832914201D1FA
:1013300020214DE02E49C96C09682F4A183291428C
:1013400001D1C91444E02A49C96C0968294A303AD4
:10135000914201D1C9143BE02549C96C0968264A6C
:101360007832914201D1C91432E02149C96C09682F
:10137000204A3032914201D1C91429E01C49C96C7C
:1013800009681D4A3032914202D14FF400111FE02A
:101390001749C96C0968174A183A914202D14FF4AB
:1013A000001115E01249C96C0968134A9032914244
:1013B00002D14FF400110BE00D49C96C09680D4AC8
:1013C0004832914202D14FF4001101E04FF0006128
:1013D000084000286FD00648C06C00680549884264
:1013E0007BD90348C06C00680349884208D105E0F6
:1013F000440600205864024010600240202068E04B
:10140000FE48C06C0068FE49884201D1202060E09F
:10141000FA48C06C0068FB49884201D1202058E09E
:10142000F648C06C0068F6496031884201D120203E
:101430004FE0F248C06C0068F2494839884201D157
:10144000C01446E0ED48C06C0068ED491831884290
:1014500001D1C0143DE0E948C06C0068E949183189
:10146000884201D1C01434E0E448C06C0068E4490B
:101470007831884201D1C0142BE0E048C06C00688C
:10148000E0493039884202D14FF4001021E0DB48B6
:10149000C06C0068DA493031884202D14FF4001044
:1014A00017E0D648C06C0068D6493031884204D174
:1014B0004FF400100DE0D4E10FE0D048C06C00689C
:1014C000CF499031884202D14FF4001001E04FF033
:1014D0000060CB49091F08606AE1C848C06C006819
:1014E000C8494831884274D9C448C06C0068C549AD
:1014F0006039884201D1202066E0C048C06C006895
:10150000BF49884201D120205EE0BC48C06C006821
:10151000BC49884201D1202056E0B848C06C006820
:10152000B7496031884201D120204DE0B348C06CFA
:101530000068B4494839884201D1C01444E0AF483A
:10154000C06C0068AE491831884201D1C0143BE03C
:10155000AA48C06C0068AB491831884201D1C01458
:1015600032E0A648C06C0068A5497831884201D1B4
:10157000C01429E0A148C06C0068A24930398842F3
:1015800002D14FF400101FE09C48C06C00689C49D9
:101590003031884202D14FF4001015E09748C06CFA
:1015A000006898493031884202D14FF400100BE0B6
:1015B0009248C06C006892499031884202D14FF441
:1015C000001001E04FF000608D4908390860EFE03D
:1015D000FFE78A48C06C00688A491839884274D984
:1015E0008648C06C006887496039884201D1202054
:1015F00066E08248C06C00688149884201D12020A1
:101600005EE07E48C06C00687E49884201D120209F
:1016100056E07A48C06C006879496031884201D14F
:1016200020204DE07548C06C0068764948398842F2
:1016300001D1C01444E07148C06C00687049183191
:10164000884201D1C0143BE06C48C06C00686D4911
:101650001831884201D1C01432E06848C06C00687B
:1016600067497831884201D1C01429E06348C06CD1
:10167000006864493039884202D14FF400101FE0FD
:101680005E48C06C00685E493031884202D14FF438
:10169000001015E05948C06C00685A493031884242
:1016A00002D14FF400100BE05448C06C006854495C
:1016B0009031884202D14FF4001001E04FF00060F9
:1016C00050497039C86073E0FFE74C48C06C00684F
:1016D0004C496039884201D1202066E04748C06CFF
:1016E00000684749884201D120205EE04348C06C31
:1016F00000684449884201D1202056E03F48C06C30
:1017000000683F496031884201D120204DE03B48CC
:10171000C06C00683B494839884201D1C01444E09C
:101720003648C06C006836491831884201D1C0146F
:101730003BE03248C06C006832491831884201D120
:10174000C01432E02D48C06C00682D4978318842C1
:1017500001D1C01429E02948C06C006829493039FA
:10176000884202D14FF400101FE02448C06C00688A
:1017700023493031884202D14FF4001015E01F4850
:10178000C06C00681F493031884202D14FF400100C
:101790000BE01A48C06C006819499031884202D1A8
:1017A0004FF4001001E04FF0006016497039886076
:1017B0001548007800F0020078B11348007820F056
:1017C0000200114908700846007840F004000870D3
:1017D000012211460D4801F0BDF90D48007800F0D6
:1017E0000200E0B10A48007820F0020008490870C1
:1017F0000846007840F0040008700BE04406002022
:101800001064024070600240B103002000040240F6
:10181000B203002001221021124801F09BF9124866
:10182000007800F0020078B10F48007820F0020044
:101830000D4908700846007840F004000870012245
:101840001021084801F086F90CF02AFD07480078BD
:1018500000F0040028B10648006840F00100044987
:10186000086010BD00000240B3030020B103002057
:10187000103C014010B5024800F030FE10BD0000E1
:10188000FC06002010B5024800F028FE10BD000044
:10189000440A002010B5024800F020FE10BD0000F0
:1018A000A40A00200146087810381823B0FBF3F290
:1018B0000848805CC865032A05D908686FF30900E9
:1018C000001D886503E008686FF309008865886D6E
:1018D00070470000AC300108014600208A6A8B691D
:1018E000CBB932B1012A0DD0022A03D0032A10D17C
:1018F0000EE000BFCB6A03F08073B3F1807F00D1AC
:10190000012007E0CB6AB3F1C07F00D1012001E0E4
:1019100000E000BF34E08B69B3F5005F1AD132B14B
:10192000012A07D0022A03D0032A11D10AE000BFFE
:1019300001200EE0CB6A03F08073B3F1807F00D109
:10194000012006E0CB6AB3F1C07F00D1012000E0A6
:1019500000BF15E032B1012A05D0022A04D0032AC3
:101960000CD103E000BF00BF012008E0CB6A03F008
:101970008073B3F1807F00D1012000E000BF00BF81
:10198000704730B50468246824F4802405682C600E
:10199000046863608468402C04D10468A260046811
:1019A000E16003E00468A1600468E26030BD704754
:1019B00010B5012000F0C6FF10BD10B5082000F0E2
:1019C000C1FF10BD10B5102000F0BCFF10BD10B558
:1019D000202000F0B7FF402000F0B4FF10BD72B629
:1019E00000BFFEE710B5024692F82030012B01D06F
:1019F000022B06D11068406908431468606100201A
:101A000010BD506A40F4802050620120F8E7F0B524
:101A100004460D461E4694F8207020688368A86826
:101A200000B900E000BF012F01D0022F7CD103F0EC
:101A3000806030B903F0006018B903F080500028CE
:101A400073D0C3F30161022905D9606A40F4000034
:101A500060620120F0BD012088403060A86860B954
:101A6000B5F800C0E86840EA4C5C206800F5C0703A
:101A700000EB0110C0F800C00FE0D5E901C040EA5A
:101A8000CC00D5F80CC040EA0C00D4F800C00CF52E
:101A9000C07C0CEB011CCCF80000D5F810C020680D
:101AA00000F5C07000EB0110C0F804C0287D0128CB
:101AB0000ED1206800F5C07000EB0110406840F4C2
:101AC000807C206800F5C07000EB0110C0F804C0F5
:101AD000D079000692F806C040EA0C4092F805C0A2
:101AE00040EA0C2C10794CEA000C206800F5C0701C
:101AF00000EB0110C0F80CC0D078000692F802C0CC
:101B000040EA0C4092F801C040EA0C2092F800C074
:101B100040EA0C00D4F800C00CF5C07C0CEB011CB2
:101B2000CCF80800206801E016E00FE000F5C07076
:101B300000EB0110006840F0010C206800F5C07057
:101B400000EB0110C0F800C0002083E7606A40F499
:101B50000010606201207DE7606A40F480206062CE
:101B6000012077E7F0B504460A46216894F8205032
:101B7000012D01D0022D7ED1424901F50071086886
:101B800040F001000860086820F47C500860086894
:101B9000566A40EA06200860107D00F01F0601200A
:101BA00000FA06F3C8699843C861A1F50071D069CD
:101BB000C8B9D1F80C029843C1F80C02908880B2E1
:101BC000968940EA064601F51070576940F837607B
:101BD000108880B2168940EA064601F510705769F0
:101BE00000EBC7004660D069012819D1D1F80C027A
:101BF0001843C1F80C02908880B2168840EA064665
:101C000001F51070576940F83760908980B21689E5
:101C100040EA064601F51070576900EBC7004660C0
:101C2000906928B9D1F804029843C1F8040204E08D
:101C3000D1F804021843C1F80402106928B9D1F898
:101C400014029843C1F8140204E0D1F814021843B6
:101C5000C1F81402106A012804D1D1F81C021843FB
:101C6000C1F81C02D1F8000220F00100C1F8000206
:101C70000020F0BDFFE7606A40F480206062012030
:101C8000F7E7000000640040704770B5044694F820
:101C90002050012D01D0022D7DD151B92068C0689E
:101CA00000F0030080B9606A40F400106062012017
:101CB00070BD2068006900F0030028B9606A40F434
:101CC000001060620120F3E7206800F5D87000EB97
:101CD0000110006800F004009060906840B920682E
:101CE00000F5D87000EB01100068400D106007E0AF
:101CF000206800F5D87000EB01100068C008506043
:101D0000206800F5D87000EB0110006800F00200B8
:101D1000D060206800F5D87000EB0110406800F03A
:101D20000F001061206800F5D87000EB01104068CA
:101D300000F47F40000A9061206800F5D87000EB45
:101D400001104068000C5061206800F5D87000EB6D
:101D5000011080681870206800F5D87000EB011041
:101D6000806800F47F40000A5870206800F5D87041
:101D700000EB0110806800F47F00000C9870206870
:101D800000F5D87000EB01108068000ED870206854
:101D900000F5D87000E02FE000EB0110C06818716A
:101DA000206800F5D87000EB0110C06800F47F4097
:101DB000000A5871206800F5D87000EB0110C06867
:101DC00000F47F00000C9871206800F5D87000EBDB
:101DD0000110C068000ED87131B92068C06840F0A9
:101DE00020002668F06005E02068006940F02000CF
:101DF0002668306100205BE7606A40F48020606202
:101E0000012055E72DE9F05F04460025206846696A
:101E10002068D0F80490206887682068D0F80CA06B
:101E20002068D0F810B02068D0F8188006F00100C3
:101E3000002855D007F00100C0B10120216888605A
:101E400007F0020018B1204600F0D7FA0EE007F0C4
:101E5000040010B145F4006508E007F0080010B177
:101E600045F4805502E0204600F0C6FA07F4807081
:101E7000C8B14FF480702168886007F4007018B111
:101E8000204600F0BCFA0EE007F4806010B145F483
:101E9000005508E007F4006010B145F4804502E009
:101EA000204600F0ABFA07F48030C8B14FF4803020
:101EB0002168886007F4003018B1204600F0A1FACC
:101EC0000EE007F4802010B145F4004508E007F467
:101ED000002010B145F4803502E0204600F090FA71
:101EE00006F0080038B10AF0100020B145F4007582
:101EF00010202168C86006F0040040B10AF0080014
:101F000028B108202168C860204600F015FA06F0C4
:101F1000020038B12068C06800F0030010B120460C
:101F200000F00CFA06F0400038B10BF0100020B1C0
:101F300045F4806510202168086106F0200040B15A
:101F40000BF0080028B1082021680861204600F045
:101F500021FA06F0100038B12068006900F0030093
:101F600010B1204600F017FA06F4003040B109F035
:101F7000100028B1102021684860204600F00CFABB
:101F800006F4803040B109F0080028B1082021682B
:101F90004860204600F036FA06F4004088B309F0A5
:101FA000040078B306F4807020B108F0010008B195
:101FB00045F0010506F4007020B108F0020008B1F8
:101FC00045F0020506F4806020B108F0040008B175
:101FD00045F0040506F40060A0B108F0700088B177
:101FE00008F07000402817D006DC10280BD02028FD
:101FF0000CD0302819D10CE0502810D0602814D112
:1020000010E01DE019E045F008050FE045F010056F
:102010000CE045F0200509E045F0400506E045F0FC
:10202000800503E045F4807500E000BF00BF206834
:10203000806920F070002168886104202168486070
:102040002DB1606A284360622046FFF71DFEBDE89F
:10205000F09F70B504460CB9012070BD94F82000C3
:1020600010B9204600F0B0F82068006840F0010088
:102070002168086000F074FD05460DE000F070FD79
:10208000401B0A2808D9606A40F4003060620520CD
:1020900084F820000120E0E72068406800F001009B
:1020A0000028EBD02068006820F00200216808605A
:1020B00000F056FD05460DE000F052FD401B0A28D9
:1020C00008D9606A40F400306062052084F820007E
:1020D0000120C2E72068406800F002000028EBD130
:1020E000207E012806D12068006840F08000216829
:1020F000086005E02068006820F080002168086022
:10210000607E012806D12068006840F04000216808
:10211000086005E02068006820F040002168086041
:10212000A07E012806D12068006840F020002168C8
:10213000086005E02068006820F020002168086041
:10214000E07E012806D12068006820F01000216898
:10215000086005E02068006840F010002168086011
:10216000207F012806D12068006840F0080021681F
:10217000086005E02068006820F008002168086019
:10218000607F012806D12068006840F004002168C3
:10219000086005E02068006820F0040021680860FD
:1021A000D4E9020108432169084361690843616871
:1021B000491E08432168C86100206062012084F83C
:1021C0002000002049E7000010B586B00446142125
:1021D00001A8FEF73FFB52492068884241D151488F
:1021E0000068401C4F4908600846006801280FD16C
:1021F00000BF002000904C48006840F000704A4941
:1022000008600846006800F00070009000BF00BF42
:1022100000BF0020009044481038006840F00800DB
:102220004149103908600846006800F00800009035
:1022300000BF00BF03200190022002900020039005
:10224000032004900920059001A9384800F088FB7C
:1022500000220521142001F0BFF8142001F0ACF891
:102260005CE033492068884258D100BF00200090CC
:102270002D48006840F080602B49086008460068DF
:1022800000F08060009000BF00BF26480068401C3E
:10229000244908600846006801280FD100BF0020CB
:1022A00000902148006840F000701F49086008460F
:1022B000006800F00070009000BF00BF00BF002069
:1022C000009019481038006840F002001649103993
:1022D00008600846006800F00200009000BF00BFE0
:1022E00060200190022002900020039003200490BF
:1022F0000920059001A90F4800F032FB00220521BA
:102300003F2001F069F83F2001F056F80022052136
:10231000402001F061F8402001F04EF806B010BDF9
:10232000006400403000002040380240000C0240B1
:1023300000680040000402407047000010B50446E9
:102340000E492068884209D10D4B0E4A00212046D3
:10235000FFF79BFC0A490B480AF04AFD0A4920682E
:10236000884209D1094B0A4A00212046FFF78DFC1B
:10237000064907480AF08AFD10BD000000640040CD
:1023800010000020200500200068004020000020F0
:102390005405002070477047704770B5044694F8A4
:1023A0002000012822D1022084F820002068006843
:1023B00020F001002168086000F0D2FB05460DE026
:1023C00000F0CEFB401B0A2808D9606A40F40030B8
:1023D0006062052084F82000012070BD20684068FC
:1023E00000F001000028EBD16062F6E7606A40F47B
:1023F000002060620120F0E7704770477047704727
:1024000070477047704770B50446A56D00F0A8FB93
:10241000064694F83500022808D08020606500BF89
:10242000002084F8340000BF012070BD20680068DF
:1024300020F01600216808602068406920F08000C4
:1024400021684861206C08B9A06C28B12068006838
:1024500020F00800216808602068006820F0010072
:102460002168086010E000F07BFB801B05280BD979
:1024700020206065032084F8350000BF002084F828
:10248000340000BF0320D0E72068006800F001009E
:102490000028E8D194F85C103F208840A860012013
:1024A00084F8350000BF002084F8340000BF00BF6E
:1024B000BBE7014691F83500022803D0802048652B
:1024C00001207047052081F835000868006820F079
:1024D00001000A6810600020F3E70000F8B5044628
:1024E000002000908C4800684FF41651B0FBF1F7C3
:1024F000A56D2E6894F85C1008208840304098B193
:102500002068006800F0040070B12068006820F0C6
:1025100004002168086094F85C1008208840A860D6
:10252000606D40F00100606594F85C100120884007
:10253000304068B12068406900F0800040B194F8F4
:102540005C1001208840A860606D40F0020060656A
:1025500094F85C1004208840304068B1206800681E
:1025600000F0020040B194F85C1004208840A8609C
:10257000606D40F00400606594F85C1010208840A5
:10258000304078B32068006800F0080050B394F839
:102590005C1010208840A8602068006800F480204B
:1025A00080B12068006800F4002028B9206CC8B110
:1025B0002046216C884715E0A06C98B12046A16C9C
:1025C00088470FE02068006800F4807028B9206810
:1025D000006820F0080021680860206C10B12046D7
:1025E000216C884794F85C102020884030400028F7
:1025F00065D02068006800F0100000285FD094F8D3
:102600005C1020208840A86094F83500052828D167
:102610002068006820F01600216808602068406982
:1026200020F0800021684861206C08B9A06C28B1B6
:102630002068006820F008002168086094F85C10A9
:102640003F208840A860012084F8350000BF0020AA
:1026500084F8340000BF206D10B12046216D8847FA
:10266000F8BD2068006800F4802080B12068006810
:1026700000F4002028B9606C10B12046616C8847D6
:102680001DE0E06BD8B12046E16B884717E0206879
:10269000006800F4807068B92068006820F01000BD
:1026A00021680860012084F8350000BF002084F80C
:1026B000340000BFE06B10B12046E16B8847606DCD
:1026C00038B3606D00F00100F0B1052084F83500EA
:1026D0002068006820F001002168086000BF0098B1
:1026E000401C0090B84200D905E02068006800F066
:1026F00001000028F3D100BF012084F8350000BF9D
:10270000002084F8340000BFE06C10B12046E16C7A
:10271000884700BFA4E700006C0000202DE9F041CD
:102720000446002500F01CFA074614B90120BDE854
:10273000F081606A00B100BF022084F8350000BF5C
:10274000002084F8340000BF2068006820F00100F9
:10275000216808600AE000F003FAC01B052805D9CB
:1027600020206065032084F83500E0E720680068D9
:1027700000F001000028EED12068056821480540DE
:10278000D4E901010843E16808432169084361690C
:102790000843A1690843E1690843216A08430543E6
:1027A000606A042803D1D4E90B010843054320687B
:1027B00005602068456925F00705606A0543606A81
:1027C00004280DD1A06A0543E06A48B12046FFF70E
:1027D00083F828B140206065012084F83500A6E721
:1027E000206845612046FFF75DF8064694F85C10C6
:1027F0003F208840B06000206065012084F83500EB
:10280000002094E73F8010F02DE9F04704460D4684
:1028100016461F464FF00008D4F8589000BF94F8B1
:102820003400012802D10220BDE8F087012084F89D
:10283000340000BF94F83500012825D1022084F827
:102840003500002060653B46324629462046FFF7AA
:1028500098F894F85C103F208840C9F80800206878
:10286000006840F0160021680860206C28B12068DC
:10287000006840F00800216808602068006840F0A7
:1028800001002168086006E000BF002084F83400E1
:1028900000BF4FF002084046C6E7000010B50446EE
:1028A000102C11D11F48007840F001001D4908701C
:1028B0001D48007840F001001B4908701B48007853
:1028C00070B30BF0EDFC2BE0202C0BD118480078F6
:1028D00040F00100164908701448007800B30BF06E
:1028E000DFFC1DE0082C06D11248007840F0010002
:1028F0001049087014E0012C12D10FF06FFA012872
:102900000ED00D490D4800680EF068FB0A480068BB
:1029100030B120070A490860BFF34F8FBFF36F8FB4
:1029200010BD0000B2030020B3030020B503002057
:10293000B1030020B4030020500400208C030020C9
:1029400004ED00E010B5044604480068204020B1C2
:10295000024804602046FFF7A1FF10BD143C01406F
:10296000F8B502460B460025002400200021D6E0E1
:10297000012606FA01F51E6806EA0504AC4274D188
:102980001E7906F00306012E04D01E7906F0030618
:10299000022E13D190684F000326BE40B0434F0073
:1029A000DE68BE4030439060506801268E40B043E0
:1029B0001E79C6F300168E40304350601E7906F033
:1029C0000306032E09D0D0684F000326BE40B04353
:1029D0004F009E68BE403043D0601E7906F003066B
:1029E000022E13D1CF0802F1200656F827004E0719
:1029F000F70E0F26BE40B0434F07FF0E1E69BE40C4
:102A00003043CF0802F1200646F8270010684F0037
:102A10000326BE40B0431E7906F003064F00BE40B9
:102A2000304310605E6806F44036002E76D000BF5A
:102A3000002600963C4E366846F480463A4F3E608B
:102A40003E46366806F48046009600BF00BF374E0B
:102A50008F0856F827008E07370F0F26BE40B04369
:102A6000334EB24202D1002624E057E0314EB2424A
:102A700001D101261EE0304EB24201D1022619E0FA
:102A80002E4EB24201D1032614E02D4EB24201D1A6
:102A900004260FE02B4EB24201D105260AE02A4E51
:102AA000B24201D1062605E0284EB24201D10726E6
:102AB00000E008268F073F0FBE4030431B4E8F08B3
:102AC00046F82700224E3068A0435E6806F4801660
:102AD00006B120431E4E3060361D3068A0435E684C
:102AE00006F4001606B12043194E361D3060184E0C
:102AF000361F3068A0435E6806F4003606B12043F6
:102B0000134E361F3060361F3068A0435E6806F4EF
:102B1000803606B120430E4E083E3060491C102915
:102B2000FFF426AFF8BD00004438024008380140E9
:102B3000000002400004024000080240000C024075
:102B4000001002400014024000180240001C024025
:102B5000083C01400AB1816101E00B0483617047C8
:102B600001480068704700005C00002070B5044612
:102B70000CB9012070BD94F83D0028B9002084F8FC
:102B80003C00204600F006FB242084F83D0020682D
:102B9000006820F00100216808602068006840F4A7
:102BA0000040216808602068006820F40040216827
:102BB000086000F04DFD05465C496068884206D813
:102BC0005B48854201D2012007E0002005E059481A
:102BD000854201D2012000E00020012800D1C9E790
:102BE0005548B5FBF0F62068406820F03F003043C0
:102BF000216848604D496068884201D8701C07E030
:102C00004FF4967070434FF47A71B0FBF1F0401CB2
:102C10002168096A21F03F0108432168086243499D
:102C20006068884214D8681E61684900B0FBF1F002
:102C3000401CC0F30B00042801D204203DE0681EB4
:102C400061684900B0FBF1F0401CC0F30B0034E0B8
:102C5000A06838B9681E616801EB4101B0FBF1F072
:102C6000401C0AE0681E616801EBC10202EB011121
:102C7000B0FBF1F0401C40F48040C0F30B0008B9F9
:102C800001201AE0A06848B9681E616801EB4101A3
:102C9000B0FBF1F0401CC0F30B000CE0681E616853
:102CA00001EBC10202EB0111B0FBF1F0401CC0F3DB
:102CB0000B0040F4804040F400402168C9694CF6A4
:102CC000FF72914308432168C861D4E907010843B2
:102CD0002168096821F0C001084321680860D4E92F
:102CE000031008432168896848F2FF329143084382
:102CF00021688860D4E9050108432168C96821F08A
:102D0000FF0108432168C8602068006840F00100A6
:102D10002168086000202064202084F83D00002005
:102D2000206384F83E0000BF24E70000A086010075
:102D300080841E0000093D0040420F002DE9FC5F29
:102D400004460F4690469946DDE90CAB0E9EFFF710
:102D500007FF054694F83D00202870D11923012271
:102D6000B0492046009502F003FC10B10220BDE8F6
:102D7000FC9F00BF94F83C00012801D10220F6E737
:102D8000012084F83C0000BF2068006800F00100CA
:102D900028B92068006840F00100216808602068B8
:102DA000006820F4006021680860222084F83D005B
:102DB000402084F83E0000202064C4F824A0A4F839
:102DC0002AB0608D20859848E0624B4642463946DD
:102DD0002046CDE9006502F07DFA08B10120C6E782
:102DE000208D88B900BF00200190206840690190C3
:102DF00020688069019000BF00BF2068006840F42F
:102E000000702168086040E0208D012818D12068FA
:102E1000006820F480602168086000BF00200190F5
:102E200020684069019020688069019000BF00BF60
:102E30002068006840F400702168086025E0EFE039
:102E4000208D022816D12068006820F48060216857
:102E500008602068006840F400602168086000BFD6
:102E600000200190206840690190206880690190ED
:102E700000BF0AE000BF0020019020684069019077
:102E800020688069019000BF00BFBAE0208D032850
:102E90007ED8208D012815D12A463146204602F0E1
:102EA0000CFC08B1012062E720680069616A0870C3
:102EB000606A401C6062208D401E2085608D401E2F
:102EC00060859EE0208D02282AD133460022574992
:102ED0002046009502F04CFB08B1012047E720682E
:102EE000006840F400702168086020680069616A29
:102EF0000870606A401C6062208D401E2085608DD5
:102F0000401E608520680069616A0870606A401C24
:102F10006062208D401E2085608D401E608570E0BF
:102F20003346002241492046009502F021FB08B1BA
:102F300001201CE72068006820F480602168086098
:102F400020680069616A0870606A401C6062208DB8
:102F5000401E2085608D401E608533460022334927
:102F60002046009502F004FB08B10120FFE620682E
:102F7000006840F400702168086020680069616A98
:102F80000870606A401C6062208D401E208500E051
:102F900010E0608D401E608520680069616A0870DD
:102FA000606A401C6062208D401E2085608D401E3E
:102FB000608526E02A463146204602F07EFB08B1B5
:102FC0000120D4E620680069616A0870606A401CCC
:102FD0006062208D401E2085608D401E60852068C7
:102FE0004069C0F3800060B120680069616A0870C0
:102FF000606A401C6062208D401E2085608D401EEE
:103000006085208D00287FF441AF202084F83D00AA
:10301000002084F83E0000BF84F83C0000BFA6E614
:103020000220A4E6020010000000FFFF04000100DF
:103030002DE9FC5F04460F4690469946DDE90CAB4E
:103040000E9EFFF78DFD054694F83D0020287DD1AA
:10305000192301224D492046009502F089FA10B14A
:103060000220BDE8FC9F00BF94F83C00012801D17C
:103070000220F6E7012084F83C0000BF20680068C9
:1030800000F0010028B92068006840F001002168C4
:1030900008602068006820F4006021680860212032
:1030A00084F83D00402084F83E0000202064C4F8ED
:1030B00024A0A4F82AB0608D20853548E0624B46F4
:1030C000424639462046CDE9006502F0B3F908B121
:1030D0000120C6E731E02A463146204602F02DFBAA
:1030E00050B1206C042805D12068006840F40070BD
:1030F000216808600120B4E7606A007821680861EF
:10310000606A401C6062208D401E2085608D401EDC
:10311000608520684069C0F3800070B1208D60B187
:10312000606A007821680861606A401C6062208DD6
:10313000401E2085608D401E6085208D0028CAD1EC
:103140002A463146204602F0E5F900E01CE050B185
:10315000206C042805D12068006840F400702168C4
:10316000086001207DE72068006840F40070216855
:103170000860202084F83D00002084F83E0000BF55
:1031800084F83C0000BF6CE702206AE702001000F0
:103190000000FFFF10B586B00446142101A8FDF71A
:1031A00059FB2A49206888424DD100BF0020009079
:1031B0002748006840F00400254908600846006878
:1031C00000F00400009000BF00BF00BF002000908E
:1031D0000846006840F0010008600846006800F0FA
:1031E0000100009000BF00BF48150190122002901E
:1031F00000200390032004900420059001A91548A5
:10320000FFF7AEFB4FF48070019012200290002077
:103210000390032004900420059001A90E48FFF7B5
:103220009FFB00BF0020009009481030006840F468
:1032300000000749103108600846006800F40000EB
:10324000009000BF00BF06B010BD0000005C004051
:103250003038024000080240000002400348006885
:103260000349097808440149086070475C00002060
:103270006400002010B50D48006840F400700B4950
:1032800008600846006840F48060086008460068EE
:1032900040F480700860032000F0DCF80F2000F09C
:1032A00007F800F05FF8002010BD0000003C02406D
:1032B0002DE9F04188B004460027B84600BF002041
:1032C00001902448006840F0010022490860084647
:1032D000006800F00100019000BF00BF02A903A830
:1032E00000F08EF9069F1FB900F0B2F9054602E022
:1032F00000F0AEF945001848B5FBF0F0A0F1010868
:103300004FF080401549086040F2E7311348C16032
:10331000C0F80480002101618160816100F02EFF0E
:10332000064696B90D4800F0FDFF06466EB91C2012
:1033300000F042F8102C07D2002221461C2000F099
:103340004BF80748046000E00126304608B0BDE8AD
:10335000F08100004038024040420F00D40B0020B2
:103360006000002008B500BF0020009011480068F0
:1033700040F480400F4908600846006800F480402F
:10338000009000BF00BF00BF00200090081F006831
:1033900040F08050091F08600846006800F0805027
:1033A000009000BF00BF00220F21901E00F014F813
:1033B00008BD00004438024001460846002809DBE9
:1033C00000F01F0301229A4043099B0003F1E02310
:1033D000C3F8002100BF70472DE9F05F80460D461D
:1033E0001646002707F07AFB074639462A46334639
:1033F00001F00700C0F1070ABAF1040F02D94FF03B
:10340000040A01E0C0F1070AD14600F1040ABAF14A
:10341000070F02D24FF0000A01E0A0F1030AD446E0
:103420004FF0010A0AFA09FAAAF1010A0AEA020AA5
:103430000AFA0CFA4FF0010B0BFA0CFBABF1010B83
:103440000BEA030B4AEA0B042146404607F04EFB09
:10345000BDE8F09F00BF00F00702064B19684FF669
:10346000FF031940044B0B4343EA0221014B19604F
:1034700000BF70470CED00E00000FA0570B504468F
:103480000D460CB9012070BD5848006800F00700D7
:10349000A84209D255490D700846006800F007009F
:1034A000A84201D00120EEE7207800F002000228B7
:1034B0001DD1207800F00400042805D14C48006894
:1034C00040F4E0504A490860207800F008000828DD
:1034D00005D14748006840F46040454908604448C9
:1034E000006820F0F000A168084341490860207896
:1034F00000F00100A8B36068012807D13C480838F3
:103500000068C0F34040B8B90120BCE760680228F9
:1035100002D06068032807D1354808380068C0F336
:10352000406048B90120AEE7314808380068C0F370
:10353000400008B90120A6E72D48006820F00300EC
:10354000616808432A490860FFF70AFB064609E05C
:10355000FFF706FB801B41F28831884202D9032025
:1035600091E707E02248006800F00C006168B0EBCA
:10357000810FEDD11D48006800F00700A84209D96D
:103580001A490D700846006800F00700A84201D0F3
:10359000012078E7207800F00400042807D11448BF
:1035A000006820F4E050E168084311490860207881
:1035B00000F00800082808D10D48006820F4604099
:1035C000216940EAC1000A49086000F061F8084931
:1035D0000968C1F30311074A515CC84006490860F5
:1035E00006480068FFF764FE00204CE7003C0240FC
:1035F00008380240B43001086C0000206000002050
:103600000F2202600D4A126802F0030242600B4A68
:10361000126802F0F0028260084A126802F4E05276
:10362000C260064A126802F46042D2080261044A8B
:10363000126802F007020A60704700000838024072
:10364000003C024001480068704700006C00002008
:1036500000B5FFF7F7FF04490968C1F38221034A67
:10366000515CC84000BD000008380240C430010869
:1036700000B5FFF7E7FF04490968C1F34231034A87
:10368000515CC84000BD000008380240C430010849
:103690002DE9F047002400250026A14625480068B2
:1036A00000F00C0020B1042805D008283AD105E02C
:1036B000DFF8849039E0DFF8849036E01D48001F81
:1036C000006800F03F041B48001F006800F4800001
:1036D00078B11A481749091F0968C1F38811A0FB7E
:1036E00001700146224600233846FCF742FE05469B
:1036F0000EE011480F49091F0968C1F38811A0FBAA
:1037000001700146224600233846FCF732FE05468A
:103710000848001F0068C0F30140401C4600B5FB8C
:10372000F6F902E0DFF8109000BF00BF4846BDE8A0
:10373000F0870000083802400024F400001BB700A6
:10374000F8B504460CB90120F8BD207800F001005E
:10375000002874D0F948006800F00C0004280DD04F
:10376000F648006800F00C00082813D1F348001F49
:10377000006800F48000B0F5800F0BD1EF480838E6
:103780000068C0F34040002859D06068002856D136
:103790000120D9E700BF6068B0F5803F08D1E74855
:1037A0000838006840F48030E449083908601EE0B9
:1037B0006068B0F5A02F0DD1E0480838006840F4EB
:1037C0008020DE49083908600846006840F48030EF
:1037D00008600CE0D9480838006820F48030D749E8
:1037E000083908600846006820F48020086000BF9F
:1037F000606890B1FFF7B4F9054606E0FFF7B0F94D
:10380000401B642801D903209EE7CC480838006893
:10381000C0F340400028F1D011E0FFF7A1F90546C0
:1038200006E0FFF79DF9401B642801D903208BE7D0
:10383000C24808380068C0F340400028F1D1207821
:1038400000F0020002285FD1BC48006800F00C00C4
:1038500058B1BA48006800F00C0008281CD1B748DD
:10386000001F006800F48000B0B9B4480838006850
:10387000C0F3400020B1E068012801D0012063E7D7
:10388000AE480838006820F0F800216940EAC1001D
:10389000AA490839086037E0E06800B30120A84968
:1038A0000860FFF75DF9054606E0FFF759F9401B90
:1038B000022801D9032047E7A04808380068C0F370
:1038C00040000028F1D09D480838006820F0F8003A
:1038D000216940EAC10099490839086014E00020D4
:1038E00097490860FFF73CF9054606E0FFF738F90D
:1038F000401B022801D9032026E7904808380068B9
:10390000C0F340000028F1D1207800F0080008281A
:103910002CD16069A8B101208A490860FFF720F91D
:10392000054606E0FFF71CF9401B022801D90320D9
:103930000AE782486C300068C0F340000028F1D0EC
:1039400014E000207F490860FFF70AF9054606E009
:10395000FFF706F9401B022801D90320F4E6774857
:103960006C300068C0F340000028F1D1207800F0EE
:103970000400042870D1002770483830006800F037
:10398000805090B900BF002000906C48383000682B
:1039900040F080506949383108600846006800F0FE
:1039A0008050009000BF00BF01276748006800F406
:1039B0008070B0B96448006840F480706249086063
:1039C000FFF7CEF8054606E0FFF7CAF8401B0228CD
:1039D00001D90320B8E65C48006800F48070002834
:1039E000F2D000BFA068012808D1544868300068B0
:1039F00040F001005149683108601DE0A0680528C9
:103A00000DD14E486830006840F004004B496831E1
:103A100008600846006840F0010008600CE0474874
:103A20006830006820F001004449683108600846A9
:103A3000006820F00400086000BFA068A8B1FFF78C
:103A40008FF8054609E0FFF78BF8401B41F28831FB
:103A5000884202D9032077E626E0384868300068BB
:103A6000C0F340000028EED013E0FFF779F80546D8
:103A700008E0FFF775F8401B41F28831884201D910
:103A8000032061E62D4868300068C0F3400000283C
:103A9000EFD1012F07D129483830006820F080503D
:103AA00026493831086000BFA069002845D0234866
:103AB000006800F00C0008285DD0A069022845D1FC
:103AC00000201F490866FFF74BF8054606E0FFF7A0
:103AD00047F8401B022801D9032035E6174808386B
:103AE0000068C0F340600028F1D1D4E90701084321
:103AF000616A40EA81110122A06AC2EB500041EAEA
:103B000000412C20005D41EA00600C49091F08605B
:103B100001200B490866FFF723F8054606E0FFF78A
:103B20001FF8401B022801D903200DE6034808387E
:103B30000068C0F340600028F1D049E00838024036
:103B400000004742800E474200700040002021499B
:103B50000866FFF705F8054606E0FFF701F8401B89
:103B6000022801D90320EFE51B480068C0F340603C
:103B70000028F2D12CE0A069012800D1E4E5164824
:103B8000001D0668A069012820D006F48001E069C4
:103B900081421BD106F03F01206A814216D147F6CF
:103BA000C0703040616AB0EB811F0FD106F4403124
:103BB0000122A06AC2EB5000B1EB004F06D106F023
:103BC00070612C20005DB1EB006F01D00120BBE5DE
:103BD0000020B9E5000047420038024010B5044615
:103BE0000CB9012010BD606A38B96068B0F5827FF9
:103BF00000D105E00021E16102E000212161616165
:103C00000021A16294F8510028B9002084F85000E6
:103C1000204600F047F8022084F851002068006830
:103C200020F0400021680860A08800F4827021899B
:103C300001F404410843A18901F400610843217C97
:103C400001F002010843217D01F001010843218BAD
:103C500001F400710843217F01F03801084320215D
:103C6000095D01F080010843218D01F400510843F2
:103C7000216808600421A06901EA104094F824102A
:103C800001F010010843216848602068C06920F4F1
:103C900000602168C86100206065012084F851003F
:103CA00000209FE710B586B00446142101A8FCF758
:103CB000D1FD4B49206888427ED100BF0020009092
:103CC0004848006840F4805046490860084600684B
:103CD00000F48050009000BF00BF00BF00200090A3
:103CE00040481438006840F002003E49143908602A
:103CF0000846006800F00200009000BF00BF00BF4F
:103D0000002000900846006840F001000860084666
:103D1000006800F00100009000BF00BF1820019073
:103D200002200290002003900320049005200590BB
:103D300001A92D48FEF714FE802001900220029078
:103D400000200390032004900520059001A9274836
:103D5000FEF706FE2648274908604FF0C06048601D
:103D6000002124488160C1604FF48061016100211D
:103D700041618161C1614FF44031016200214162C2
:103D8000FEF7CCFC08B1FDF72AFE00BF1948E0643D
:103D9000846300BF16481830174908604FF0C060B0
:103DA00048604021144881600021C1604FF4806167
:103DB00001610021416100E010E08161C1614FF4C7
:103DC0000031016200214162FEF7A8FC08B1FDF755
:103DD00006FE00BF0848A064846300BF06B010BDA3
:103DE000003001404438024000040240000002401C
:103DF000406402409C060020FC0600202DE9FF5F85
:103E00000446884691461D460E9E012002900020E1
:103E1000019000BF94F85000012803D1022004B0A3
:103E2000BDE8F09F012084F8500000BFFEF798FE27
:103E3000074694F851B060680390AA46BBF1010FA1
:103E40000BD00398B0F5827F04D1A06810B9BBF104
:103E5000040F02D002200190DBE0B8F1000F03D084
:103E6000B9F1000F00D015B901200190D1E094F80C
:103E70005100042802D0052084F85100002060651C
:103E8000C4F83890E587A587C4F83080E586A58614
:103E9000206460642068006800F04000402805D07D
:103EA0002068006840F0400021680860E068B0F5D4
:103EB000006F4AD1606810B1BAF1010F09D1206BCF
:103EC00000882168C860206B801C2063E08E401E43
:103ED000E08633E02068806800F00200022810D1FC
:103EE000E08E70B1029801280BD1206B0088216808
:103EF000C860206B801C2063E08E401EE08600209E
:103F000002902068806800F0010068B1E08F58B12D
:103F10002068C068A16B0880A06B801CA063E08F44
:103F2000401EE08701200290FEF71AFEC01BB0423F
:103F300004D3701C10B1032001906AE0E08E0028C9
:103F4000C8D1E08F0028C5D14AE0606810B1BAF14D
:103F5000010F09D1206B007821680873206B401C89
:103F60002063E08E401EE08634E02068806800F028
:103F70000200022810D1E08E70B1029801280BD106
:103F8000206B007821680873206B401C2063E08E52
:103F9000401EE086002002902068806800F001004A
:103FA00068B1E08F58B12068C068A16B0870A06B41
:103FB000401CA063E08F401EE08701200290FEF7C6
:103FC000CFFDC01BB04201D3701C00B916B903204D
:103FD00001901EE0E08E0028C7D1E08F0028C4D1F8
:103FE0003A463146204605F03DFD20B101200190C2
:103FF000202060650DE0A06850B900BF002000904F
:104000002068C068009020688068009000BF00BFF2
:1040100000BF012084F8510000BF002084F8500048
:1040200000BF0198FBE6042808D14FF0E0210969A0
:1040300041F004014FF0E022116107E04FF0E02170
:10404000096921F004014FF0E022116170477047C7
:10405000704710B50346002200BF93F83C000128CA
:1040600001D1022010BD012083F83C0000BF22F0E6
:10407000FF00CC6840EA040222F440708C6840EAF9
:10408000040222F480604C6840EA040222F40060DA
:104090000C6840EA040222F480500C6940EA0402F1
:1040A00022F400504C6940EA040222F48040CC69BA
:1040B00040EA04021868426400BF002083F83C0014
:1040C00000BF00BFCEE7000030B502460B4600BF80
:1040D00092F83C00012801D1022030BD012082F875
:1040E0003C0000BF022082F83D0010684468106860
:1040F000816824F070041868044310684460184D07
:104100001068A8421BD01068B0F1804F17D0154D31
:104110001068A84213D0144D1068A8420FD0134D58
:104120001068A8420BD0124D1068A84207D0114D5C
:104130001068A84203D0104D1068A84205D121F0A4
:1041400080015868014310688160012082F83D00B9
:1041500000BF002082F83C0000BF00BFBDE70000A8
:10416000000001400004004000080040000C004036
:1041700000040140004001400018004010B5044612
:104180000CB9012010BD94F83D0028B9002084F836
:104190003C00204600F026F8022084F83D00211D56
:1041A000206805F003FE012084F8460000BF84F873
:1041B0003E0001213F20015540200155412001557D
:1041C00000BF00BF012084F8420043200155442075
:1041D00001554520015500BF012084F83D00002015
:1041E000D0E7000038B5044623492068884218D13A
:1041F00000BF002000902148006840F002001F49E5
:1042000008600846006800F00200009000BF00BF90
:10421000002205211D20FFF7DFF81D20FFF7CCF855
:1042200029E01749206888420FD100BF0020009084
:104230001248006840F00400104908600846006811
:1042400000F00400009000BF15E00E49206888428D
:1042500011D100BF002000900848001D006840F404
:1042600000300649091D08600846006800F4003067
:10427000009000BF00BF38BD00040040403802403D
:104280000008004000440140014691F83D0001282B
:1042900001D001207047022081F83D001A4B0868C8
:1042A00098421BD00868B0F1804F17D0174B0868B0
:1042B000984213D0164B086898420FD0154B0868E7
:1042C00098420BD0144B0868984207D0134B0868EB
:1042D000984203D0124B086898420CD10868806855
:1042E00000F00702062A0CD00868006840F00100C0
:1042F0000B68186005E00868006840F001000B6872
:1043000018600020C6E700000000014000040040E3
:1043100000080040000C0040000401400040014043
:1043200000180040014691F83D00012801D001200D
:104330007047022081F83D000868C06840F0010025
:104340000B68D8601A4B086898421BD00868B0F117
:10435000804F17D0174B0868984213D0164B086847
:1043600098420FD0154B086898420BD0144B086840
:10437000984207D0134B0868984203D0124B086844
:1043800098420CD10868806800F00702062A0CD019
:104390000868006840F001000B68186005E00868D4
:1043A000006840F001000B6818600020C0E70000C2
:1043B000000001400004004000080040000C0040E4
:1043C0000004014000400140001800402DE9F04188
:1043D00004460D46002700BF94F83C00012802D196
:1043E0000220BDE8F081012084F83C0000BF0220DB
:1043F00084F83D002068866826F0770626F47F461C
:10440000206886602868502833D00CDC202850D0E3
:1044100004DC00284BD0102851D149E0302849D085
:1044200040284CD139E060282DD0702807D0B0F555
:10443000805F03D0B0F5005F41D10DE041E0D5E9E8
:1044400002136A68206805F02EFD2068866846F031
:1044500077062068866034E0D5E902136A68206830
:1044600005F021FD2068806840F480402168886064
:1044700027E0EA686968206805F006FE5021206898
:1044800005F01CFD1DE0EA686968206805F00FFE74
:104490006021206805F012FD13E0EA686968206871
:1044A00005F0F2FD4021206805F008FD09E000BF9D
:1044B00000BF00BF2968206805F000FD01E001276A
:1044C00000BF00BF012084F83D0000BF002084F839
:1044D0003C0000BF384684E7704710B504462068AA
:1044E0000069C0F34000D8B12068C068C0F3400044
:1044F000B0B16FF0020021680861012020772068C8
:10450000806900F0030018B12046FFF7E5FF05E0E1
:10451000204600F02BF9204600F0F8F90020207723
:1045200020680069C0F38000D8B12068C068C0F37B
:104530008000B0B16FF0040021680861022020778C
:104540002068806900F4407018B12046FFF7C4FF6E
:1045500005E0204600F00AF9204600F0D7F90020D7
:10456000207720680069C0F3C000D8B12068C06817
:10457000C0F3C000B0B16FF00800216808610420EA
:1045800020772068C06900F0030018B12046FFF7CB
:10459000A3FF05E0204600F0E9F8204600F0B6F958
:1045A0000020207720680069C0F30010D8B120688F
:1045B000C068C0F30010B0B16FF01000216808614E
:1045C000082020772068C06900F4407018B12046A8
:1045D000FFF782FF05E0204600F0C8F8204600F013
:1045E00095F9002020772068006900F0010058B19B
:1045F0002068C06800F0010030B16FF00100216850
:104600000861204600F00AFA20680069C0F3C01073
:1046100058B12068C068C0F3C01030B16FF080009E
:10462000216808612046FFF712FD20680069C0F389
:10463000801058B12068C068C0F3801030B16FF0AE
:10464000400021680861204600F008FA20680069EF
:10465000C0F3401058B12068C068C0F3401030B1BA
:104660006FF02000216808612046FFF7F1FC10BDC3
:1046700010B586B00446142101A8FCF7EBF83449C4
:10468000206888421DD100BF00200090314800689A
:1046900040F010002F4908600846006800F0100044
:1046A000009000BF00BF481501900220029000203A
:1046B000039004900120059001A92748FEF750F9C6
:1046C00043E02649206888421ED100BF00200090A8
:1046D0002048006840F008001E490860084600684D
:1046E00000F00800009000BF00BF4FF48040019030
:1046F000022002900020039004900220059001A95E
:104700001748FEF72DF920E01649206888421CD191
:1047100000BF002000900F48006840F020000D49C5
:1047200008600846006800F02000009000BF00BF4D
:10473000402001900220029000200390049003206A
:10474000059001A90848FEF70BF906B010BD00005E
:1047500000000140303802400010024000080040D4
:10476000000C0240004401400014024070472DE953
:10477000F04104460D461646002700BF94F83C0061
:10478000012802D10220BDE8F081012084F83C001C
:1047900000BF36B1042E1BD0082E31D00C2E5ED1B6
:1047A00045E02946206805F093FB2068806940F0C9
:1047B0000800216888612068806920F00400216871
:1047C000886120688069296908432168886148E018
:1047D0002946206805F0B4FB2068806940F4006039
:1047E000216888612068806920F480602168886180
:1047F00020688069296940EA01202168886130E0E9
:104800002946206805F0DAFB2068C06940F00800FE
:104810002168C8612068C06920F004002168C8616F
:104820002068C069296908432168C86119E02946E0
:10483000206805F0FFFB2068C06940F40060216833
:10484000C8612068C06920F480602168C861206860
:10485000C069296940EA01202168C86101E0012797
:1048600000BF00BF00BF002084F83C0000BF3846F6
:1048700089E710B504460CB9012010BD94F83D003D
:1048800028B9002084F83C00204600F025F80220DA
:1048900084F83D00211D206805F088FA012084F885
:1048A000460000BF84F83E0001213F200155402012
:1048B00001554120015500BF00BF012084F842008E
:1048C00043200155442001554520015500BF0120DA
:1048D00084F83D000020D0E708B50A4A01689142FB
:1048E0000FD100BF002100910749096841F0010183
:1048F000054A11601146096801F00101009100BFED
:1049000000BF08BD0000014044380240704700006D
:1049100070B504460D4615B994F83E000BE0042D21
:1049200002D13F20005D06E0082D02D14020005D4D
:1049300001E04120005D012801D0012070BD1DB9BA
:10494000022084F83E000EE0042D03D102213F2016
:10495000015508E0082D03D102214020015502E055
:1049600002214120015501222946206805F08AFADA
:1049700023492068884203D022492068884201D117
:10498000012000E0002028B12068406C40F4004085
:10499000216848641A49206888421BD02068B0F119
:1049A000804F17D018492068884213D017492068D3
:1049B00088420FD01649206888420BD011492068E0
:1049C000884207D013492068884203D012492068E2
:1049D00088420CD12068806800F00706062E0CD0B3
:1049E0002068006840F001002168086005E0206848
:1049F000006840F001002168086000209EE7000088
:104A00000000014000040140000400400008004094
:104A1000000C0040004001400018004010B5044662
:104A20002068B0F1804F01D1FEF718FC08492068DA
:104A300088420BD1074890ED000AF7EE000A30EEED
:104A4000200A80ED000A01200349087010BD000013
:104A50000004004000000020040000207047704760
:104A600070B50446002520684069C0F3C01594F86D
:104A70003D00212817D1B5B100BF00BF2168143116
:104A800051E8001F21F080002168143141E8000244
:104A9000002AF3D100BF606B10B1606BFDF7B3FC6F
:104AA000204605F0D1FC20684069C0F3801594F8D9
:104AB0003E00222817D1B5B100BF00BF21681431D4
:104AC00051E8001F21F040002168143141E8000244
:104AD000002AF3D100BFA06B10B1A06BFDF793FCCF
:104AE000204605F06BFC002070BD70472DE9F84FA3
:104AF0000446206805682068C668206847694FF04A
:104B00000009CA4605F00F09B9F1000F0AD105F0F6
:104B1000200038B106F0200020B1204605F0A7FCA7
:104B2000BDE8F88FB9F1000F7CD007F0010018B98B
:104B300006F49070002875D005F0010030B106F43D
:104B4000807018B1206C40F00100206405F0040072
:104B500030B107F0010018B1206C40F00200206471
:104B600005F0020030B107F0010018B1206C40F0F0
:104B70000400206405F0080048B106F0200010B9D8
:104B800007F0010018B1206C40F008002064206C90
:104B9000002846D005F0200028B106F0200010B112
:104BA000204605F064FC20684069C0F3801A206C40
:104BB00000F0080010B9BAF1000F2DD0204605F022
:104BC000FDFB2068406900F04000402820D100BF74
:104BD00000BF2168143151E8001F21F04000216816
:104BE000143141E80002002AF3D100BFA06B50B19C
:104BF0007548A16B0865A06BFDF75BFC88B1A06BE5
:104C0000016D88470DE02046FFF76FFF09E009E0DE
:104C10002046FFF76AFF04E02046FFF766FF00200A
:104C200020647DE7206B012876D105F01000002874
:104C300072D006F010000028FAD000BF00200090CB
:104C400020680068009020684068009000BF00BFA6
:104C50002068406900F0400040285ED1A06B0068E9
:104C600040681FFA80F8B8F1000F54D0A08D40457D
:104C700051DDA4F82E80A06BC069B0F5807F43D0D1
:104C800000BF00BF21680C3151E8001F21F4807083
:104C900021680C3141E80002002AF3D100BF00BFB7
:104CA00000BF2168143151E8001F21F00100216884
:104CB000143141E80002002AF3D100BF00BF00BF59
:104CC0002168143151E8001F21F04000216814319F
:104CD00041E80002002AF3D100BF202084F83E0002
:104CE0000020206300BF00BF21680C3151E8001F85
:104CF00021F0100021680C3141E80002002AF3D1B4
:104D000000BFA06BFDF77FFBA08DE28D801A81B202
:104D10002046FFF7A4FE03E740E0A08DE18D401A96
:104D20001FFA80F8E08DC0B3B8F1000F35D000BF96
:104D300000BF21680C3151E8001F21F490702168F8
:104D40000C3141E80002002AF3D100BF00BF00BFD0
:104D50002168143151E8001F21F00100216814314D
:104D600041E80002002AF3D100BF202084F83E0071
:104D70000020206300BF00BF21680C3151E8001FF4
:104D800021F0100021680C3141E80002002AF3D123
:104D900000BF41462046FFF762FEC1E605F08000F5
:104DA00030B106F0800018B1204605F080FDB7E66E
:104DB00005F0400030B106F0400018B1204605F083
:104DC00033FBADE600BFABE689A2000810B5044690
:104DD0000CB9012010BDA06900B100E000BF94F83B
:104DE0003D0028B9002084F83C00204600F028F857
:104DF000242084F83D002068C06820F40050216819
:104E0000C860204605F0B0FB2068006920F490409F
:104E1000216808612068406920F02A002168486103
:104E20002068C06840F400502168C86000202064F9
:104E3000202084F83D0084F83E000020CAE70000EE
:104E400010B586B00446142101A8FBF703FDAB4959
:104E5000206888427ED100BF00200090A8480068EA
:104E600040F01000A64908600846006800F01000F5
:104E7000009000BF00BF00BF00200090A048143881
:104E8000006840F002009E49143908600846006836
:104E900000F00200009000BF00BF00BF00200090A3
:104EA0000846006840F0010008600846006800F00D
:104EB0000100009000BF00BF8020019002200290FE
:104EC00000200390032004900720059001A98D483D
:104ED000FDF746FD4FF40070019002200290002083
:104EE0000390032004900720059001A98648FDF750
:104EF00037FD8648864908604FF000604860002111
:104F000083488160C1604FF480610161002141618B
:104F10008161C1614FF40031016200214162FDF7FE
:104F2000FDFB08B1FCF75BFD00BF7948A06384631B
:104F300000BF76483030774908604FF00060486025
:104F40004021744881600021C1604FF4806101619B
:104F5000002100E01AE041618161C1614FF48031BC
:104F6000016200214162FDF7D9FB08B1FCF737FD72
:104F700000BF68486063846300BF002205212520CC
:104F8000FEF72AFA2520FEF717FAB4E062492068F6
:104F9000884253D100BF002000905948001F00688C
:104FA00040F480205649091F08600846006800F454
:104FB0008020009000BF00BF00BF0020009050483C
:104FC0001438006840F004004D4914390860084660
:104FD000006800F00400009000BF00BF4FF4406084
:104FE00001900220029000200390032004900720EB
:104FF000059001A94948FDF7B3FC494849490860B3
:105000004FF000604860002146488160C1604FF465
:10501000806101610021416181614FF48071C16152
:105020004902016200214162FDF778FB08B1FCF7FB
:10503000D6FC00BF3B48A06384635CE03A4920682B
:10504000884258D100BF002000902D48006840F0F1
:1050500020002B4908600846006800F020000090FE
:1050600000BF00BF00BF0020009025481438006832
:1050700040F040002249143908600846006800F0FA
:105080004000009000BF00BF4FF484400190022018
:10509000029000200390032004900820059001A9AD
:1050A0002248FDF75DFC19486038214908608005F9
:1050B000486000211E488160C1604FF48061016139
:1050C000002141618161C1614FF400310162002121
:1050D0004162FDF723FB08B1FCF781FC00BF1448D7
:1050E000A063846300BF002205214720FEF774F906
:1050F0004720FEF761F906B010BD00000010014026
:10510000443802400004024000000240886402402B
:10511000440A0020A40A0020004800400008024081
:1051200028600240040B00200014014000180240D7
:10513000640B002070B504460D46164694F83E00F8
:10514000202816D105B10EB9012070BD00BF94F81A
:105150003C00012801D10220F7E7012084F83C003F
:1051600000BF0020206332462946204605F012FB8E
:10517000EBE70220E9E770B504460D46164694F8C1
:105180003E00202816D105B10EB9012070BD00BF28
:1051900094F83C00012801D10220F7E7012084F8AF
:1051A0003C0000BF0020206332462946204605F01F
:1051B00059FBEBE70220E9E7704770472DE9F84F0C
:1051C00004460E46174699464FF0000A94F83D00F3
:1051D00020285AD106B117B90120BDE8F88F00BFC9
:1051E00094F83C00012801D10220F6E7012084F860
:1051F0003C0000BF00202064212084F83D00FDF722
:10520000AFFC8246A784E784A068B0F5805F04D134
:10521000206910B90025B04602E035464FF000087D
:1052200000BF002084F83C0000BF1BE05346002272
:1052300080212046CDF8009005F069FB08B10320DD
:10524000CBE745B9B8F80000C0F308002168486012
:1052500008F1020803E02878216848606D1CE08CA2
:10526000401EE084E08C0028E0D15346002240211B
:105270002046CDF8009005F04AFB08B10320ACE7CA
:10528000202084F83D000020A7E70220A5E7704712
:1052900000BFFEE7014608684069C0F38020B0B156
:1052A0006FF480600A68506100200863202081F854
:1052B0003D00002081F83E00086C40F004000864C6
:1052C00000BF002081F83C0000BF01207047002093
:1052D000FCE700002DE9F84304460F4615469946C1
:1052E000DDE908862068006840F480602168086075
:1052F0002068006840F480702168086043460022FE
:105300004FF001112046009600F032F960B120689C
:10531000006800F48070B0F5807F02D14FF4007017
:1053200020640320BDE8F88307F0FE0021680861CF
:10533000334642463E49204600F05DF908B101205F
:10534000F0E700BF002000902068406900902068CE
:105350008069009000BF00BF32464146204600F001
:10536000ECF950B1206C042805D12068006840F4A5
:105370000070216808600120D4E7B9F1010F03D162
:10538000E8B22168086117E0C5F3072021680861C9
:1053900032464146204600F0D0F950B1206C042836
:1053A00005D12068006840F4007021680860012081
:1053B000B8E7E8B22168086132464146204600F06D
:1053C000BCF950B1206C042805D12068006840F475
:1053D0000070216808600120A4E72068006840F49C
:1053E000807021680860434600224FF0011120467A
:1053F000009600F0BDF858B12068006800F4807095
:10540000B0F5807F02D14FF400702064032089E75B
:10541000F8B240F001002168086133464246044971
:10542000204600F0E8F808B101207BE7002079E78A
:10543000020001002DE9F8430446884615469946C6
:10544000DDE908672068006840F480702168086022
:10545000334600224FF001112046009700F088F8F3
:1054600060B12068006800F48070B0F5807F02D1E0
:105470004FF4007020640320BDE8F88308F0FE00BC
:10548000216808613B4632462149204600F0B3F8C6
:1054900008B10120F0E700BF0020009020684069BB
:1054A000009020688069009000BF00BF3A463146F6
:1054B000204600F042F950B1206C042805D1206844
:1054C000006840F40070216808600120D4E7B9F159
:1054D000010F03D1E8B22168086117E0C5F3072086
:1054E000216808613A463146204600F026F950B15D
:1054F000206C042805D12068006840F40070216801
:1055000008600120B8E7E8B2216808610020B3E72D
:105510000200010070B504460D46164620E0204604
:10552000FFF7B8FE08B1012070BD681CC0B1FDF7DF
:1055300017FB801BA84200D895B9002020632020CB
:1055400084F83D00002084F83E00206C40F02000EC
:10555000206400BF002084F83C0000BF0120E3E786
:1055600020684069C0F380000028D8D00020DBE725
:105570002DE9F04104460D4617461E46DDF8188019
:105580001CE0701CD0B1FDF7EBFAA0EB0800B042B4
:1055900000D89EB900202063202084F83D00002020
:1055A00084F83E00206C40F02000206400BF002002
:1055B00084F83C0000BF0120BDE8F081C5F307403E
:1055C00001280AD120684069A9B20840A9B28842DE
:1055D00001D101200BE0002009E020688069A9B218
:1055E0000840A9B2884201D1012000E00020B84261
:1055F000C7D00020E0E72DE9F04104460D461646ED
:105600001F463DE020684069C0F38020E8B1206873
:10561000006840F40070216808606FF480602168C1
:10562000486100202063202084F83D00002084F899
:105630003E00206C40F00400206400BF002084F88D
:105640003C0000BF0120BDE8F081701CC0B1FDF737
:1056500087FAC01BB04200D896B9002020632020F2
:1056600084F83D00002084F83E00206C40F02000CB
:10567000206400BF002084F83C0000BF0120E2E766
:10568000C5F3074001280AD120684069A9B2084043
:10569000A9B2884201D101200BE0002009E0206876
:1056A0008069A9B20840A9B2884201D1012000E076
:1056B00000200028A6D00020C5E770B504460D469E
:1056C000164632E020684069C0F30010A0B16FF0C8
:1056D00010002168486100202063202084F83D00EC
:1056E000002084F83E00206C206400BF002084F875
:1056F0003C0000BF012070BDFDF732FA801BA842BC
:1057000000D895B900202063202084F83D000020B7
:1057100084F83E00206C40F02000206400BF002090
:1057200084F83C0000BF0120E5E720684069C0F331
:1057300080100028C6D00020DDE770B504460D4675
:10574000164620E02046FFF7A5FD08B1012070BDF8
:10575000681CC0B1FDF704FA801BA84200D895B9B7
:1057600000202063202084F83D00002084F83E00C3
:10577000206C40F02000206400BF002084F83C0032
:1057800000BF0120E3E720684069C0F3C010002893
:10579000D8D00020DBE700002DED048B82B007207D
:1057A0000BF06AFA02E064200BF066FAFBF77EFA6F
:1057B0000028F8D102E064200BF05EFA08F020FF28
:1057C0000028F8D1D14AA2F10C01101DFBF788FA8C
:1057D000CF48CE4B103BCF4ACF490090CF4808F07E
:1057E000C9FCDFEDCF0A9FEDCF0ACF4A0021CF4899
:1057F00001F04AFCC74AC849CD48FBF70FF9C64833
:1058000090ED000ACB4880ED000ACB4880ED000AFD
:10581000CA4880ED000AC04890ED010AC54880EDF5
:10582000010AC54880ED010AC44880ED010ABA4862
:1058300090ED020ABF4880ED020ABF4880ED020ADF
:10584000BE4880ED020A002009F078FA04460CF008
:1058500073FABB4908601021BA48C161FEF7BEF96E
:105860000822B949B94804F03DF80120B849087048
:105870004BE100BF4FF0FF3101200AF0C3FF0128C8
:10588000F8D1B448007800F00400002877D0B1487F
:10589000007820F00400AF4908709C49091DAA480F
:1058A000401CFBF7CFF99948103890ED050A10EE2F
:1058B000101A08460DF0E2FA41EC190BB0EE490A55
:1058C000F0EE690A05F016FBB0EE408AF0EE608A51
:1058D0009FEDA10B53EC102B51EC180B0CF09CFF1F
:1058E00005D89FED9F0A8948103880ED050A874842
:1058F000103890ED060A10EE101A08460DF0BEFAA8
:1059000041EC190BB0EE490AF0EE690A05F0F2FA23
:10591000B0EE408AF0EE608A9FED8F0B53EC102BB7
:1059200051EC180B0CF078FF05D89FED8D0A7748E5
:10593000103880ED060A7548103890ED070A10EE11
:10594000101A08460DF09AFA41EC190BB0EE490A0C
:10595000F0EE690A05F0CEFAB0EE408AF0EE608A09
:105960009FED7D0B53EC102B51EC180B0CF054FFFA
:1059700005D89FED7B0A6548103880ED070A794805
:10598000007800F0040060B17648007820F0040050
:10599000744908705D4A1032A2F11C017248FBF78D
:1059A000FBF87248007800F0040088B16F48007876
:1059B00020F004006D49087054496D48FBF77EFAE9
:1059C00052481038D0ED040AB0EE600A08F022FD0B
:1059D0004F484E4B103B4F4A4F4900904F4808F0FC
:1059E000C9FB554890ED000A544880ED000A514823
:1059F00090ED000A504880ED000A90ED000A5D48E5
:105A0000D0ED000A20EE200A4C48D0ED000A59489B
:105A100090ED011A00EE810A3F48D0ED000A55488A
:105A200090ED021A00EE810A424880ED000A4248D9
:105A300090ED010A414880ED010A3E4890ED010ACF
:105A40003D4880ED010A90ED010A4A48D0ED000A78
:105A500020EE200A3948D0ED010A464890ED011A9F
:105A600000EE810A2C48D0ED010A424890ED021A5E
:105A700000EE810A2F4880ED010A2F4890ED020ABE
:105A80002E4880ED020A2B4890ED020A2A4880ED4C
:105A9000020A90ED020A3748D0ED000A20EE200AF3
:105AA0002648D0ED020A334890ED011A00EE810A33
:105AB0001948D0ED020A2F4890ED021A00EE810A33
:105AC0001C4880ED020A134B024614499FED2A0A36
:105AD0001748FAF7B7FF294B1A1F111F144807F090
